:100000000C9464000C947A060C94A7060C948C0053
:100010000C948C000C948C000C948C000C94CD0AE5
:100020000C948C000C948C000C948C000C948C0020
:100030000C948C000C948C000C948C000C948C0010
:100040000C94D4060C948C000C942E080C948C0008
:100050000C948C000C948C000C948C000C948C00F0
:100060000C948C000C948C000000000024002700ED
:100070002A0000000000250028002B0000000000DE
:1000800023002600290004040404040404040202DA
:100090000202020203030303030301020408102007
:1000A0004080010204081020010204081020000012
:1000B0000007000201000003040600000000000029
:1000C000000002002D052A0911241FBECFEFD8E041
:1000D000DEBFCDBF11E0A0E0B1E0E8E5F7E102C08E
:1000E00005900D92AA3BB107D9F712E0AAEBB1E057
:1000F00001C01D92A137B107E1F710E0C8ECD0E0D4
:1001000004C02297FE010E94A60BC43CD107C9F788
:100110000E94290B0C94AA0B0C940000AEE0B0E0F6
:10012000E4E9F0E00C947B0B0D891E8986E08C835A
:100130001A8309838FEF9FE79E838D839E01275E3D
:100140003F4FCE0101966F89788DA9010E94B200C0
:100150002F813885020F131FF80110822E96E4E0DC
:100160000C94970BABE0B0E0E8EBF0E00C946D0B77
:100170003C012B015A01FC0117821682838181FD0B
:1001800003C06FEF7FEFC6C19AE0892E1E0108946D
:10019000211C311CF3012381F20123FD859123FFF2
:1001A00081912F01882309F4B2C1853239F423FDEE
:1001B000859123FF81912F01853229F490E0B301CD
:1001C0000E94A502E7CF982FFF24EE249924FFE197
:1001D000FF15D0F09B3269F09C3228F4903259F030
:1001E000933291F40EC09D3249F0903369F441E0AE
:1001F00024C052E0F52A84E0F82A28C098E0F92AC1
:1002000025C0E0E1FE2A22C0F7FC29C0892F8053D7
:100210008A3070F4F6FE05C0989C902C1124980E3C
:1002200015C0E89CE02C1124E80EF0E2FF2A0EC075
:100230009E3229F4F6FC6BC140E4F42A07C09C36D8
:1002400019F450E8F52A02C0983649F4F20123FD6A
:10025000959123FF91912F01992309F0B8CF892F10
:100260008554833018F08052833038F444E050E0F5
:10027000A40EB51E5FE359830FC0933631F0933758
:1002800079F0933509F056C020C0F501808189834B
:1002900042E050E0A40EB51E610101E010E012C082
:1002A000F501C080D180F6FC03C06FEF7FEF02C084
:1002B000692D70E042E050E0A40EB51EC6010E9418
:1002C0009A028C015FE7F52214C0F501C080D1804D
:1002D000F6FC03C06FEF7FEF02C0692D70E042E0D3
:1002E00050E0A40EB51EC6010E948F028C0150E89A
:1002F000F52AF3FE07C01AC080E290E0B3010E9425
:10030000A502EA948E2D90E008171907A8F30EC0F5
:10031000F601F7FC8591F7FE81916F0190E0B30142
:100320000E94A502E110EA94015010400115110548
:1003300079F7EAC0943611F0993669F5F7FE08C0EE
:10034000F501208131814281538184E090E00AC02F
:10035000F501808191819C01442737FD4095542F00
:1003600082E090E0A80EB91E9FE6F92257FF09C06F
:1003700050954095309521953F4F4F4F5F4FE0E8A6
:10038000FE2ACA01B901A1012AE030E00E94D1028F
:10039000D82ED21840C0953729F41F2D1F7E2AE091
:1003A00030E01DC01F2D197F9F3661F0903720F47B
:1003B000983509F0ACC00FC0903739F0983709F084
:1003C000A6C004C028E030E00AC0106114FD14602B
:1003D00020E130E004C014FD166020E132E017FF98
:1003E00008C0F501608171818281938144E050E011
:1003F00008C0F50180819181BC0180E090E042E07D
:1004000050E0A40EB51EA1010E94D102D82ED21830
:100410008FE7F82EF122F6FE0BC05EEFF522D9141D
:1004200038F4F4FE07C0F2FC05C08FEEF82202C0DB
:100430001D2D01C0192DF4FE0DC0FE01ED0DF11DA5
:100440008081803319F499EEF92208C01F5FF2FE13
:1004500005C003C08F2D867809F01F5F0F2DF3FCB8
:1004600014C0F0FE0FC01E1510F09D2C0BC09D2C6B
:100470009E0C911A1E2D06C080E290E0B3010E94EE
:10048000A5021F5F1E15C0F304C01E1510F4E11A6B
:1004900001C0EE2404FF0FC080E390E0B3010E948E
:1004A000A50202FF1DC001FD03C088E790E00EC059
:1004B00088E590E00BC0802F867891F001FF02C0A4
:1004C0008BE201C080E2F7FC8DE290E0B3010E9474
:1004D000A50206C080E390E0B3010E94A5029A94B1
:1004E000D914C0F3DA94F101ED0DF11D808190E093
:1004F000B3010E94A502DD20A9F706C080E290E0CA
:10050000B3010E94A502EA94EE20C1F743CEF301A5
:1005100066817781CB012B96E2E10C94890BFC017B
:100520000590615070400110D8F7809590958E0F1E
:100530009F1F0895FC016150704001900110D8F791
:10054000809590958E0F9F1F08950F931F93CF93C3
:10055000DF938C01EB018B8181FF1BC082FF0DC0FB
:100560002E813F818C819D812817390764F4E881B1
:10057000F9810193F983E88306C0E885F985802F26
:100580000995892B31F48E819F8101969F838E83FB
:1005900002C00FEF1FEFC801DF91CF911F910F91A4
:1005A0000895FA01AA27283051F1203181F1E89409
:1005B0006F936E7F6E5F7F4F8F4F9F4FAF4FB1E056
:1005C0003ED0B4E03CD0670F781F891F9A1FA11D51
:1005D000680F791F8A1F911DA11D6A0F711D811D52
:1005E000911DA11D20D009F468943F912AE0269F17
:1005F00011243019305D3193DEF6CF010895462F76
:100600004770405D4193B3E00FD0C9F7F6CF462F56
:100610004F70405D4A3318F0495D31FD40524193BF
:1006200002D0A9F7EACFB4E0A6959795879577957C
:100630006795BA95C9F700976105710508959B0103
:10064000AC010A2E06945795479537952795BA958C
:10065000C9F7620F731F841F951FA01D0895982F5F
:100660002A9885E08EBD0DB407FEFDCF8EB59EBDE8
:100670000DB407FEFDCF8EB56EBD0DB407FEFDCFE8
:100680008EB54EBD0DB407FEFDCF8EB52A9A0895E6
:100690002A988EBD0DB407FEFDCF8EB58FEF8EBDAF
:1006A0000DB407FEFDCF8EB52A9A0895982F2A9A89
:1006B000229A2D982B982C98259A239A2498529810
:1006C0005A9A81E58CBD1DBC2A9880EC8EBD0DB474
:1006D00007FEFDCF8EB52A9A85E38A95F1F72A9811
:1006E00082E08EBD0DB407FEFDCF8EB588E28EBDD3
:1006F0000DB407FEFDCF8EB582E08EBD0DB407FEB2
:10070000FDCF8EB580E98EBD0DB407FEFDCF8EB551
:100710009EBD0DB407FEFDCF8EB583E08EBD0DB43A
:1007200007FEFDCF8EB52A9A2A9883E08EBD0DB4C0
:1007300007FEFDCF8EB58AE28EBD0DB407FEFDCF5C
:100740008EB58FEF8EBD0DB407FEFDCF8EB52A9A04
:10075000891719F0289A80E008952A9882E08EBDC2
:100760000DB407FEFDCF8EB58CE08EBD0DB407FE37
:10077000FDCF8EB51EBC0DB407FEFDCF8EB52A9AF7
:100780002A9882E08EBD0DB407FEFDCF8EB58DE0B8
:100790008EBD0DB407FEFDCF8EB51EBC0DB407FE99
:1007A000FDCF8EB52A9A2A9882E08EBD0DB407FE41
:1007B000FDCF8EB580E68EBD0DB407FEFDCF8EB5A4
:1007C00080E68EBD0DB407FEFDCF8EB52A9A2A981D
:1007D00082E08EBD0DB407FEFDCF8EB580E78EBDE5
:1007E0000DB407FEFDCF8EB580E68EBD0DB407FEBD
:1007F000FDCF8EB52A9A2A9882E08EBD0DB407FEF1
:10080000FDCF8EB58FE08EBD0DB407FEFDCF8EB54A
:100810001EBC0DB407FEFDCF8EB52A9A81E0089567
:1008200089B186958695809581700895DF93CF93E1
:100830000F92CDB7DEB7DC012A9880EB8EBD0DB4E8
:1008400007FEFDCF8EB58FEF8EBD0DB407FEFDCF39
:100850008EB52A9A8983AE014F5F5F4F898186FFEB
:1008600002C080E906C0898187FD02C080E06CC0BB
:1008700084E92A988EBD0DB407FEFDCF8EB58FEFAB
:100880008EBD0DB407FEFDCF2EB58FEF8EBD0DB41E
:1008900007FEFDCF8EB582958695877090E030E09B
:1008A00073E0220F331F7A95E1F7822B932B119679
:1008B0009C938E938FEF8EBD0DB407FEFDCF8EB54A
:1008C0008FEF8EBD0DB407FEFDCF8EB58FEF8EBDC1
:1008D0000DB407FEFDCF3EB53F70832F880F1296F3
:1008E0002C911297217E282B12962C931297FA01A5
:1008F000808190E063E0969587956A95E1F7817035
:100900002E7F282B12962C93129790E02FEF0AC07F
:100910002EBD0DB407FEFDCF8EB5FD01E90FF11D13
:1009200083839F5F9317A0F32A9AFA01808186FF41
:1009300003C08CE261E002C08CE262E040E00E9411
:100940002F03898187708F5F0F90CF91DF9108957A
:10095000DF93CF930F92CDB7DEB7DC012A9880EA00
:100960008EBD0DB407FEFDCF8EB58FEF8EBD0DB4DD
:1009700007FEFDCF8EB52A9A8983898182FD02C048
:1009800040E00BC0898184FD02C042E006C089813D
:1009900086FF02C040E05CC044E02A98842F806457
:1009A0008EBD0DB407FEFDCF8EB52D913C911197F4
:1009B000C901E3E096958795EA95E1F78EBD0DB400
:1009C00007FEFDCF8EB5822F8295880F807E8EBD6B
:1009D0000DB407FEFDCF8EB51EBC0DB407FEFDCFD6
:1009E0008EB51EBC0DB407FEFDCF8EB512968C9150
:1009F0001297982F96959F7080FF07C090649EBDB8
:100A00000DB407FEFDCF8EB513C09EBD0DB407FE1D
:100A1000FDCF8EB520E00AC0FD01E20FF11D8381FC
:100A20008EBD0DB407FEFDCF8EB52F5F2917A0F345
:100A30002A9A85E08A95F1F72A98442309F441E03F
:100A4000842F80688EBD0DB407FEFDCF8EB52A9A27
:100A5000842F0F90CF91DF9108950895862F0E94E3
:100A6000560308958FE060EE40E40E942F0308953E
:100A7000DF93CF93CDB7DEB72B970FB6F894DEBFD9
:100A80000FBECDBFFA017A8369838B81807E80613E
:100A90008B8380818C8381818D8382818E8383810E
:100AA0008F83848188878581898786818A878781EA
:100AB0008B87CE0101960E94A804811181E02B96BC
:100AC0000FB6F894DEBF0FBECDBFCF91DF91089572
:100AD000CF93DF93EB0180EB0E944803882329F03A
:100AE000CE010E941604811181E0DF91CF9108951B
:100AF00080919B0161E00E94B00780919D0161E0BF
:100B00000E94B00787E592E040E052EC61E070E0BF
:100B10000E945F0887E592E060E071E00E948A0A27
:100B20008AEB91E061E00E942E05882329F087E599
:100B300092E06BE071E004C087E592E067E171E06C
:100B40000E948A0A8AEB91E00E9432050895EF9292
:100B5000FF920F931F93DF93CF93CDB7DEB7ED973F
:100B60000FB6F894DEBF0FBECDBFEBAAFCAA0DAB4B
:100B70001EAB2FAB38AF49AF5AAF6BAF7CAF8DAF69
:100B80008DB79EB746970FB6F8949EBF0FBE8DBF28
:100B9000EDB7FEB731968E010F5F1F4FADB7BEB7F1
:100BA00012961C930E93119787E391E093838283AF
:100BB0008BA99CA9958384838EA9868317828FA98C
:100BC0008087118688AD8287138689AD84871586D4
:100BD0008AAD868717868BAD808B118A8CAD828B10
:100BE000138A8DAD848B158A0E948E008DB79EB7B7
:100BF00046960FB6F8949EBF0FBE8DBF87E592E074
:100C0000B8010E948A0AED960FB6F894DEBF0FBEB7
:100C1000CDBFCF91DF911F910F91FF90EF9008957D
:100C2000EF92FF920F931F93DF93CF93CDB7DEB771
:100C300028970FB6F894DEBF0FBECDBFDE01119628
:100C4000E0EAF1E088E001900D928150E1F78AEB53
:100C500091E06FE872E0AE014F5F5F4F0E94380590
:100C600061E070E080E090E00E941C070E941004A8
:100C7000882339F187E592E06CE571E00E948A0AE9
:100C80008AEB91E06BEB71E00E9468058823F9F034
:100C9000E090BB01F090BC010091BD011091BE013C
:100CA0002091BF013091C0014091C1015091C2011A
:100CB0006091C3017091C4018091C5010E94A70594
:100CC00006C087E592E06FE671E00E948A0A68EE4E
:100CD00073E080E090E00E941C0728960FB6F8941D
:100CE000DEBF0FBECDBFCF91DF911F910F91FF905F
:100CF000EF9008951F920F920FB60F9211242F9329
:100D00003F934F935F936F937F938F939F93AF9393
:100D1000BF93EF93FF938091C6019091C701892BF8
:100D200029F0E091C601F091C7010995FF91EF917B
:100D3000BF91AF919F918F917F916F915F914F91F3
:100D40003F912F910F900FBE0F901F9018951F92FB
:100D50000F920FB60F9211242F933F934F935F93EF
:100D60006F937F938F939F93AF93BF93EF93FF9373
:100D70008091C8019091C901892B29F0E091C801A7
:100D8000F091C9010995FF91EF91BF91AF919F91AA
:100D90008F917F916F915F914F913F912F910F9024
:100DA0000FBE0F901F9018951F920F920FB60F92C3
:100DB00011242F933F938F939F93AF93BF93809171
:100DC000CE019091CF01A091D001B091D10130918D
:100DD000D2010196A11DB11D232F2D5F2D3720F0CB
:100DE0002D570196A11DB11D2093D2018093CE01F4
:100DF0009093CF01A093D001B093D1018091CA010B
:100E00009091CB01A091CC01B091CD010196A11D93
:100E1000B11D8093CA019093CB01A093CC01B093F4
:100E2000CD01BF91AF919F918F913F912F910F90E5
:100E30000FBE0F901F9018959B01AC017FB7F894DF
:100E40008091CA019091CB01A091CC01B091CD01CC
:100E500066B5A89B05C06F3F19F00196A11DB11D95
:100E60007FBFBA2FA92F982F8827860F911DA11D0C
:100E7000B11D62E0880F991FAA1FBB1F6A95D1F7A9
:100E8000BC012DC0FFB7F8948091CA019091CB01AD
:100E9000A091CC01B091CD01E6B5A89B05C0EF3F74
:100EA00019F00196A11DB11DFFBFBA2FA92F982FD0
:100EB00088278E0F911DA11DB11DE2E0880F991F9B
:100EC000AA1FBB1FEA95D1F7861B970B885E93403C
:100ED000C8F2215030404040504068517C4F2115AD
:100EE00031054105510571F60895789484B5826005
:100EF00084BD84B5816084BD85B5826085BD85B5BE
:100F0000816085BDEEE6F0E0808181608083E1E86C
:100F1000F0E01082808182608083808181608083A4
:100F2000E0E8F0E0808181608083E1EBF0E08081A7
:100F300084608083E0EBF0E0808181608083EAE779
:100F4000F0E0808184608083808182608083808102
:100F5000816080838081806880831092C1000895C1
:100F6000482F50E0CA0186569F4FFC0124914A57F2
:100F70005F4FFA0184918823C1F0E82FF0E0EE0F73
:100F8000FF1FE859FF4FA591B491662341F49FB725
:100F9000F8948C91209582238C939FBF08959FB7DE
:100FA000F8948C91822B8C939FBF0895482F50E02A
:100FB000CA0182559F4FFC012491CA0186569F4F5A
:100FC000FC0134914A575F4FFA019491992309F437
:100FD00044C0222351F1233071F0243028F4213011
:100FE000A1F0223011F514C02630B1F02730C1F045
:100FF0002430D9F404C0809180008F7703C08091A1
:1010000080008F7D8093800010C084B58F7702C0F0
:1010100084B58F7D84BD09C08091B0008F7703C0F7
:101020008091B0008F7D8093B000E92FF0E0EE0F4B
:10103000FF1FEE58FF4FA591B491662341F49FB76F
:10104000F8948C91309583238C939FBF08959FB71C
:10105000F8948C91832B8C939FBF08951F920F92CD
:101060000FB60F9211242F933F934F938F939F931B
:10107000EF93FF934091C600E0915302F091540228
:1010800031969F012F773070319780915502909162
:1010900056022817390739F0ED52FE4F408330933E
:1010A000540220935302FF91EF919F918F914F91A2
:1010B0003F912F910F900FBE0F901F901895CF93D7
:1010C000DF93EC019A01AB01E885F985203081EED0
:1010D000380780E0480780E0580709F449C081E0FC
:1010E00090E00A8802C0880F991F0A94E2F7808373
:1010F00060E079E08DE390E00E94520B2150304097
:1011000040405040CA01B90122E030E040E050E0E8
:101110000E94520BEC81FD813083EE81FF812083A0
:10112000EA85FB85208141E050E0CA010E8402C0BF
:10113000880F991F0A94E2F7282B2083EA85FB8504
:101140002081CA010F8402C0880F991F0A94E2F718
:10115000282B2083EA85FB858081088802C0440F04
:10116000551F0A94E2F7842B8083DF91CF91089575
:10117000108220E130E0CECFDC011296ED91FC919F
:101180001397E058FF4F2191319180819181281B65
:10119000390B2F773070C9010895DC011296ED915B
:1011A000FC911397EE57FF4F2081318192918291EC
:1011B000E058F0408217930719F42FEF3FEF05C076
:1011C000E20FF31F8081282F30E0C9010895DC0170
:1011D0001296ED91FC911397DF01AE57BF4F2D9101
:1011E0003C911197E058FF4F80819181E058F04089
:1011F0008217930719F42FEF3FEF0BC0E20FF31F95
:1012000080812F5F3F4F2F7730702D933C93282F95
:1012100030E0C9010895DC011296ED91FC9113971D
:10122000EE57FF4F80819181929382930895FC0144
:10123000A085B18521898C9190E0022E02C0959500
:1012400087950A94E2F780FFF6CF0484F585E02DB8
:10125000608308958CEA91E090935802809357023E
:1012600083ED91E090935A028093590285EC90E0CF
:1012700090935C0280935B0284EC90E090935E021A
:1012800080935D0280EC90E09093600280935F0217
:1012900081EC90E0909362028093610286EC90E092
:1012A000909364028093630284E08093650283E0FC
:1012B0008093660287E08093670285E080936802EE
:1012C00081E08093690208950F931F93CF93DF937A
:1012D0008C01EB0109C02196D801ED91FC910190A0
:1012E000F081E02DC801099568816623A1F7DF919F
:1012F000CF911F910F910895EF92FF920F931F933B
:10130000CF93DF938C017B01EA010CC0D7016D9173
:101310007D01D801ED91FC910190F081E02DC80193
:1013200009952197209791F7DF91CF911F910F9108
:10133000FF90EF900895DC01ED91FC910280F38124
:10134000E02D099508952F923F924F925F926F92F0
:101350007F928F929F92AF92BF92CF92DF92EF9245
:10136000FF920F931F93DF93CF93CDB7DEB7A09774
:101370000FB6F894DEBF0FBECDBF1C016A017B0122
:10138000411551056105710549F440E350E060E005
:1013900070E020E030E00E943D0A56C08824992485
:1013A0005401422E55246624772401E010E00C0FEE
:1013B0001D1F080D191DC701B601A30192010E944E
:1013C000300BF80160830894811C911CA11CB11C96
:1013D000C701B601A30192010E94300BC901DA01D5
:1013E0006C017D01C114D104E104F104F1F681E046
:1013F000E82EF12CEC0EFD1EE80CF91C3E010894C1
:10140000611C711CD501C4010197A109B1096C01CE
:10141000C818D90816C0F601EE0DFF1D40814A30EC
:1014200010F4405D01C0495C552747FD5095652F7C
:10143000752FC10120E030E00E943D0A0894E108C8
:10144000F1086E147F0439F7A0960FB6F894DEBF4A
:101450000FBECDBFCF91DF911F910F91FF90EF9005
:10146000DF90CF90BF90AF909F908F907F906F90C4
:101470005F904F903F902F900895EF92FF920F93BF
:101480001F93CF93DF93EC017A018B012115310576
:1014900041F4E881F9810190F081E02D642F0995F4
:1014A0001BC02A303105B1F477FF10C04DE250E087
:1014B00060E070E020E030E00E943D0A1095009569
:1014C000F094E094E11CF11C011D111DCE01B80146
:1014D000A7012AE00E94A309DF91CF911F910F91EC
:1014E000FF90EF9008950F931F938C014DE050E013
:1014F00060E070E020E030E00E943D0AC8014AE070
:1015000050E060E070E020E030E00E943D0A1F9172
:101510000F9108950F931F938C010E949B09C8019E
:101520000E94730A1F910F910895813041F081301C
:1015300018F08230D1F409C010926E0008958091A5
:101540006F008D7F80936F000895809170008D7F74
:101550008093700081E08093B0008091B100887F1B
:1015600084608093B1001092B30008951F93182FE8
:1015700080919F01811711F09FEF06C0E2ECF0E02F
:1015800094918FEF80939F01892F0E94950A812F5C
:1015900060E00E94D6071F9108951F920F920FB628
:1015A0000F9211242F933F934F935F936F937F93E9
:1015B0008F939F93AF93BF93EF93FF9380916A02B2
:1015C00090916B02A0916C02B0916D020097A10501
:1015D000B10551F1E0916E02F0916F02808190911E
:1015E00070028927808380916A0290916B02A0919A
:1015F0006C02B0916D02181619061A061B06C4F487
:1016000080916A0290916B02A0916C02B0916D0280
:101610000197A109B10980936A0290936B02A0938C
:101620006C02B0936D0204C080919F010E94B60AC3
:10163000FF91EF91BF91AF919F918F917F916F91AA
:101640005F914F913F912F910F900FBE0F901F9080
:1016500018950E9475070E9478050E941006FDCF1C
:10166000A1E21A2EAA1BBB1BFD010DC0AA1FBB1FA6
:10167000EE1FFF1FA217B307E407F50720F0A21B18
:10168000B30BE40BF50B661F771F881F991F1A9485
:1016900069F760957095809590959B01AC01BD01AF
:1016A000CF01089597FB092E05260ED057FD04D0D3
:1016B000D7DF0AD0001C38F450954095309521951D
:1016C0003F4F4F4F5F4F0895F6F790958095709577
:1016D00061957F4F8F4F9F4F08952F923F924F926A
:1016E0005F926F927F928F929F92AF92BF92CF92B2
:1016F000DF92EF92FF920F931F93CF93DF93CDB7BB
:10170000DEB7CA1BDB0B0FB6F894DEBF0FBECDBF32
:1017100009942A88398848885F846E847D848C8403
:101720009B84AA84B984C884DF80EE80FD800C810C
:101730001B81AA81B981CE0FD11D0FB6F894DEBFEF
:101740000FBECDBFED010895EE0FFF1F0590F49180
:08175000E02D0994F894FFCF8D
:10175800454355205265616465720043414E2049F6
:101768006E6974206F6B0043616E277420696E691F
:10177800742043414E005265676973746572202571
:10178800693A202523780069643D252378202D2D8A
:1017980020252378202523782025237820256420D8
:1017A800256420256420256420256400546865721A
:1017B8006520617265206D65737361676573006389
:1017C8006865636B5F6D657373616765732829204E
:1017D8007361797320746865726520617265206E23
:1017E8006F206D657373616765730008000700FFFC
:1017F80020001119AF0000F000000000170964096B
:0A1808007C09BC08E708CD080B09B5
:00000001FF
